:020000040800F2
:10000000C00B0020A9020008833F00081539000832
:10001000813F0008FB1C000825500008000000007C
:10002000000000000000000000000000F74300088E
:100030001F1E000800000000E1400008F94300080E
:10004000C3020008C3020008C3020008C30200087C
:10005000C3020008C3020008C3020008C30200086C
:10006000C3020008C3020008C3020008651D00089F
:10007000711D0008C3020008C3020008C302000883
:10008000C302000800000000C3020008C302000809
:10009000C3020008C3020008C3020008C30200082C
:1000A000C3020008C3020008C3020008C30200081C
:1000B000C3020008C3020008C3020008C30200080C
:1000C000C3020008C3020008C3020008C3020008FC
:1000D000C302000819500008C3020008C302000848
:1000E000C3020008C3020008C3020008C3020008DC
:1000F000C3020008C3020008C30200080000000099
:1001000000000000C302000800000000C302000855
:10011000C302000800000000C3020008C302000878
:10012000C3020008C3020008C3020008C30200089B
:10013000C30200080000000000000000C302000825
:10014000C3020008C3020008000000000000000015
:10015000000000000000000000000000000000009F
:10016000000000000000000000000000C3020008C2
:10017000C3020008000000000000000000000000B2
:1001800000000000C30200080000000000000000A2
:10019000000000000000000000000000000000005F
:1001A0000000000000000000C3020008C3020008B5
:1001B000C3020008C3020008C302000800000000D8
:1001C00000000000C3020008000000000000000062
:1001D000C3020008C302000800F002F800F055F85E
:1001E0000AA090E8000C82448344AAF10107DA4592
:1001F00001D100F04AF8AFF2090EBAE80F0013F08F
:10020000010F18BFFB1A43F00103184724670000D1
:1002100044670000103A24BF78C878C1FAD8520762
:1002200024BF30C830C144BF04680C607047000070
:100230000023002400250026103A28BF78C1FBD8EF
:10024000520728BF30C148BF0B607047662905F0D0
:100250001B82642900F0FE80732900F0DA850020FB
:1002600070471FB505F00BFA00F03EFE04000020B9
:10027000002105F077F9401C60600020002105F0A6
:100280005BF9E0601FBD10B510BD01F0EFF811463D
:10029000FFF7E7FF05F000F901F016F903B4FFF7E7
:1002A000F2FF03BC01F05AF90948804709480047AA
:1002B000FEE7FEE7FEE7FEE7FEE7FEE7FEE7FEE716
:1002C000FEE7FEE704480549054A064B7047000073
:1002D00065440008D9010008C0050020C00B0020BB
:1002E000C0070020C007002053EA020C00F069801C
:1002F0002DE9F04B4FF00006002B1FBFB3FA83F53A
:1003000003FA05F424FA05F65E4012BF1643B2FA6A
:1003100082F502FA05F4C5F120051EBF22FA05FC9C
:1003200044EA0C04203556EA044C4FEA144418BF42
:10033000641C4FF000084FF00009904271EB030C71
:1003400039D3002919BFB1FA81F701FA07F6B0FADB
:1003500080F700FA07F6C7F120071EBF20FA07FC56
:1003600046EA0C062037B6FBF4FCA7EB0507103F66
:1003700007F01F0BCBF120060CFA0BFB2CFA06F64C
:1003800044BFB3460026202FA4BF5E464FF0000BAB
:100390005BEA060C08BF4FF0010B19EB0B09ABFB36
:1003A000027C48EB0608C01B06FB02CC0BFB03CC0F
:1003B00071EB0C01C1E70B46024641464846BDE8D9
:1003C000F08B13B54FF000004FF00001AFF3008049
:1003D000BDE81C40704700000FB41CB5074B06AACF
:1003E0007B4469460090059800F0E9FC00206946CE
:1003F00000F0F8FC1CBC5DF814FB0000010A0000D2
:1004000070B50C460546012A05D02878800600D52F
:10041000EA69002302E0012305E05B1C934202D25B
:10042000E05C0028F9D1A869E618C01AA861286A1A
:10043000184428622846AFF3008004E0D5E9012182
:1004400014F8010B9047B442F8D32846AFF300806C
:1004500070BD00002DE9F0410646002410687529A2
:10046000314616A510D0AFF30080002802DA4042D2
:1004700013A507E031688A0701D512A502E04907F4
:1004800004D511A5012401E0AFF3008000210A2268
:1004900006F1240709E0B0FBF2FCB0FBF2F302FB2B
:1004A0001C00303078541846491C0028F3D12346EC
:1004B0002A463046BDE8F04100F013BA00000000C3
:1004C0002D0000002B000000200000002DE9F04767
:1004D0004FF0000A89460446C0F820A02046E16893
:1004E0008847002876D0252806D0D4E901219047F6
:1004F000206A401C2062F1E7E16820460025884719
:10050000C4F81CA006460027C4F818A02A2E09D05B
:10051000304604F0B0FD38B304EB8708303EC8F82D
:10052000186019E059F8041B204604EB870291611A
:10053000E1688847012F064618D1E069002820DAD3
:1005400025F020051DE0D8F8180000EB800006EB30
:1005500040003038C8F818002046E1688847064651
:1005600004F089FD0028EED1012F0AD02E2E08D1EB
:100570002046E16888477F1C0646022F45F020058B
:10058000C4DBA069002803DA404245F00105A06100
:10059000E80701D025F01005B6B1A6F141001928F1
:1005A00002D8203645F400654A463146204625608B
:1005B0004D46FFF74BFE58B1012806D0ED1D25F042
:1005C000070000F1080989E704E005F1040985E75F
:1005D00030468AE7206ABDE8F08700000FB400B516
:1005E0008DB010A9099000910B904FF0FF300A9048
:1005F00000200C90064878440690064878446A46E5
:1006000007900F9909A800F01DFC0DB05DF814FBD0
:100610006B080000830800002DE9FF5F1D464FF0C6
:10062000FF3B91464FF000085F46D5E90146A969B6
:1006300001987F1C8847296A824688470028F6D19E
:10064000BAF1FF3F0CD0002E24F4C06419DD60061F
:1006500014D5BAF12B0F09D0BAF12D0F0ED103E04A
:10066000584604B0BDE8F09F44F48064A96901983D
:100670007F1C8847761E8246002E02DDBAF1300FBD
:1006800003D0B9F1000F26D032E0A969761E019897
:100690007F1C44F400748847002E824605DDBAF1C1
:1006A000780F06D0BAF1580F03D0B9F1000F10D06F
:1006B0001EE0B9F1000F02D0B9F1100F18D1A969ED
:1006C000761E01987F1C24F400748847824610200F
:1006D00002E0082000E00A20814609E0A96908FB41
:1006E0000908761E01987F1C44F4007488478246EE
:1006F000002E05DD4946504600F08FFB0028EDDA5C
:10070000E96901988847A00502D46FF00100A8E7C5
:10071000E00725D1600613D5600502D5C8F10000B9
:1007200000E0404629680A1D2A600968220501D5B3
:10073000087015E0220701D5088011E008600FE07D
:100740002868011D29600068210502D580F8008015
:1007500006E0210702D5A0F8008001E0C0F8008083
:1007600038467EE710B5431C02E010F8011B71B15A
:100770008107FAD14FF0013202C88C1A8C4314EA77
:10078000C211F9D0C01A0A0603D0C01E10BDC01A8B
:1007900010BD0A0401D0801E10BD0902FCD0401E0D
:1007A00010BD40EA010370B59B072ED14FF0013612
:1007B000042A2AD308C810C99D1B9D43121F15EA9D
:1007C000C61517D0D8B2E1B2401A50EA056110D16F
:1007D00098B2A1B2401A50EA05410AD123F07F40F5
:1007E00024F07F41401A50EA052102D1180EA0EBF7
:1007F000146070BDA342DBD018BA21BA884201D977
:10080000012070BD4FF0FF3070BD0AB9002070BDEF
:1008100010F8013B11F8014B63B1A3420AD1521EFB
:1008200008D010F8013B11F8014B1BB1A34201D1D4
:10083000521EEDD1181B70BD4FF0000200B51346DB
:1008400094469646203922BFA0E80C50A0E80C50F0
:10085000B1F12001BFF4F7AF090728BFA0E80C50A1
:1008600048BF0CC05DF804EB890028BF40F8042B9A
:1008700008BF704748BF20F8022B11F0804F18BF07
:1008800000F8012B704710B5044610F0030F08BFA5
:1008900011F0030F40F015804FF0013E121FC0F21F
:1008A0000E8051F8043BA3EB0E0C2CEA030C1CEA5F
:1008B000CE1C08BF40F8043BF0D0A1F1040102F1C6
:1008C0000402521E08DB11F8013B002B00F8013B2B
:1008D000F7D1114600F0E6FA204610BD7047704788
:1008E00070472DE9F0470D4699469246044600F1BF
:1008F00024080168880604D5E06921F01001216010
:1009000000E00120A84201DD471B00E00027A169AB
:100910007A1902EB0900081AA0612078C00602D4F7
:100920002046AFF30080002608E0D4E901211AF840
:1009300006009047206A401C761C20624E45F4DB7E
:100940002078C0060AD52046AFF3008006E0D4E93F
:10095000012130209047206A401C2062381EA7F1F8
:100960000107F4DC07E0D4E9012118F805009047FD
:10097000206A401C2062281EA5F10105F3DC2046F8
:10098000AFF300802078000602D50220BDE8F08792
:100990000120FBE770472DE9FF4F0C461E464FF044
:1009A000FF378BB0D2E90001DDF860800A908A46FB
:1009B000C1F30A5505B93D46002108464FF0000035
:1009C000BAF1000F00F4400005DA00EB80004FF4AC
:1009D000400101EA50004FEA9059B9F1010F00DDE2
:1009E000B9460A9850EA4A000ED044F61050A5F2D3
:1009F000FF3545432F14B8F1000F1ED07542291E54
:100A00001EDDC9F100021CE0B8F1010F4FF000003B
:100A100001D0302103E0F24305E02154401CB042F4
:100A2000FBDB30460022002121540B99C1F80880DD
:100A3000C1E900200FB0BDE8F08FBD1B6D1CDEE7E3
:100A40004A4600DA694206A800F09AFC06AB93E831
:100A5000070003AB83E8070050460A9900F085FDC4
:100A60008DE80700A0F500501F3800900398002D76
:100A70000ADD42F21F014A460844002303A90390FD
:100A8000684600F0EEFF09E0A0F500504A461F3826
:100A9000002303A90390684600F0F8FF8DE80700E3
:100AA0000004000C03D04FF0FF30410800E0104676
:100AB000B8F1000F03D00022009215461EE0751E0B
:100AC00005D400F015FA303262556D1EF9D5B346E3
:100AD0000122084302D000227F1C04E02078302845
:100AE00001D100227F1E002A099784D01DE0112D1C
:100AF00007DA00F0FDF9303262556D1C50EA010250
:100B0000F5D1084302D00098C8B10EE00021681E5C
:100B100005E0235C625C63542254401E491C814200
:100B2000F7DBAB46A81B401E0990002004F80B0021
:100B30000B98099AC0F80880C0E9002B7AE71126C3
:100B40004FF0000857E72DE9F04F88460446D21DC4
:100B500022F0070191B0D1E90001CDE90A0104F0CA
:100B600062FA02460B98C00F01D02D2007E02068E2
:100B7000810701D52B2002E0202101EAC000032AD1
:100B8000099001D0072A05DB03464146204600F0C4
:100B9000FDF90BE12078800601D5E06900E0062030
:100BA000B8F1650F814606D0B8F1660F18D0B8F1DC
:100BB000670F70D131E00020B9F1110F009001DB17
:100BC000112301E009F101030AAA01A90CA8FFF70A
:100BD000E2FEDDE90C70002609F10105834647E0DD
:100BE00001204B4600904FF000470AAA01A90CA82B
:100BF000FFF7D1FEDDE90DB00C995D46002610B976
:100C000009F101000D18B9EB050003D4C0F1FF365E
:100C100009F10105A5EB09002BE0B9F1010F01DA9B
:100C20004FF001090020B9F1110F0090484601DD95
:100C3000112300E003460AAA01A90CA8FFF7ABFEA6
:100C4000DDE90C704D4600268346207800070AD463
:100C5000AB4500DA5D4601A8012D04DD411911F80C
:100C6000011C302907D04F4502DA17F1040F04DACE
:100C7000012082460FE06D1EEEE7002F02DCED1B27
:100C80003E4403E0781CA84200DD7D1CB81B00F147
:100C9000010A4FF000472078000703D4AA4501DB82
:100CA0004FF0FF3A0021B7F1004F0DF143088DF8E6
:100CB000431024D002202B23002F01DA7F422D2362
:100CC0000A21021EA0F1010000DC5FB197FBF1FCDC
:100CD00097FBF1F201FB1C7C17460CF1300C08F875
:100CE00001CDEEE7A8F1010003702188090501D5C7
:100CF000452100E06521A0F1010800F8011C0998D8
:100D00000FA9A1EB0807FF1D00B10120411901EB5C
:100D1000EA70A1693844081A401EA0612078C00614
:100D200002D42046AFF30080099828B1D4E901210C
:100D30009047206A401C20622078C00622D52046B9
:100D4000AFF300801EE0002E04DBB34502DD01A8F6
:100D5000805D00E03020D4E901219047206A401CEA
:100D60002062761CAAF101005FEA000A0AD100F0B5
:100D7000BBF8C0680168405CD4E901219047206A53
:100D8000401C2062281EA5F10105DCDC07E0D4E947
:100D9000012118F8010B9047206A401C2062381E80
:100DA000A7F10107F3DC2046AFF30080032011B068
:100DB00041E6000001694A1C02610878704700B5ED
:100DC0008FB0CDE901310021059105497944CDE984
:100DD000031011466846FFF779FB0FB000BD000015
:100DE000E5FFFFFF0A6802F8010B0A60704710B5C3
:100DF000436913B1AFF3008001E0FFF701FB01206D
:100E000010BD127800F124010A7000224A700122FC
:100E1000EDE711684FF0FF32E9E73A2800D23038A9
:100E200020F02002412A01D3A2F13700884201D3E9
:100E30004FF0FF30704700000268114413780160E2
:100E400018467047D1600549794451610449794495
:100E5000116200211161114600F0D8B8EDFFFFFFCB
:100E600029010000426842B1016811F8013B23B139
:100E7000521EC0E90012184670470121C160881E49
:100E8000704742685AB1C368016843B983688B42AE
:100E900005D0491E521CC0E90012002070474FF0D7
:100EA000FF3070474FF000020429C0F0128010F0AC
:100EB000030C3FF4C3ACCCF1040CBCF1020F18BF1F
:100EC00000F8012BA8BF20F8022BA1EB0C01FFF7C3
:100ED000B5BC5FEAC17C24BF00F8012B00F8012BF0
:100EE00048BF00F8012B704700487047800500207C
:100EF00030B5B0F10A024FEA900E71F100034EEAEC
:100F0000817EB0EB0E0061EB91014FEA101E4EEABC
:100F1000017E10EB0E0041EB11114FEA102E4EEA4C
:100F2000016E10EB0E0041EB11214FEA104E4EEA1C
:100F3000014E10EB0E0041EB1141401841F1000150
:100F40004FEAD00040EA41704FEAD10110EB800532
:100F50004FEA810444EA907444EB01046D1944EBB8
:100F60000404521BA3414FF0000348BF0A3200D5CE
:100F700030BD401C41F1000130BD10B5044600F009
:100F80009BFA0068005D00F0010010BD2DE9F04102
:100F90001F46044603260168072A01F4006004DBAB
:100FA00008B116A505E016A503E008B115A500E0F7
:100FB00015A521F010002060A069C01EA0610FB12E
:100FC000401EA0612046AFF300804FB1D4E901215B
:100FD00038469047206A401C2062C01C206206E010
:100FE000206AFAE7D4E9012115F8010B9047761E33
:100FF000F8D22046AFF30080BDE8F0814E414E00AC
:101000006E616E00494E4600696E66002DE9F34F31
:101010004FF0000A0C4656468DB001200C9001F1AD
:101020000C000B9062690B9801219047051E2DD092
:10103000252D2CD0216A8847C0B162690B98012107
:101040009047216A88470028F7D16269411E0B98B2
:10105000904700E0761CA1690D988847216A88476F
:101060000028F7D1E1690D988847DBE7A1690D9861
:101070008847A842074601D1761CD3E7E1690D985D
:1010800088477F1C02D1BAF1000F6FD06CE1626912
:101090000B9800273D46394690472A2804D16269BB
:1010A0000B98012190470125DFF8D08262690B98E7
:1010B00001219047A0F130010A290AD24745E5DC19
:1010C00007EB870100EB4107303FDFD445F0100507
:1010D000ECE7E90601D46FF000476C280AD04C28F1
:1010E00014D0682815D06A280DD074281CD07A280E
:1010F0001AD01DE062690B98012190476C2802D03C
:1011000045F0040514E045F002050DE045F020052A
:101110000AE062690B9801219047682802D045F0E7
:10112000080505E045F4006562690B9801219047C8
:10113000C4E9015765283DD019DC58287AD00CDC69
:10114000452837D004DC252826D041289ED131E01F
:1011500046282FD0472899D12CE05B2877D06128EA
:1011600028D063287CD0642823D15AE0F7E06F2888
:1011700048D008DC66281DD067281BD0692821D0FC
:101180006E2816D127E0702845D0732868D07528BE
:1011900047D078280DD14DE0A1690D9888472528C2
:1011A00005463FF469AFE1690D9888476D1C3FF42F
:1011B0006AAFD9E00D9923466A466FF00100AFF39C
:1011C0000080C6E045F0400023464FF0000260601A
:1011D000A80736D43EE0E8077FF447AF2068011D3A
:1011E00021600068290501D506701BE7290701D594
:1011F000068017E7A90703D5F117C0E9006111E7D9
:1012000006600FE745F0400023464FF0080260609B
:10121000A80716D41EE040F60E0125EA0100606022
:1012200016E045F0400023464FF00A026060A80730
:1012300007D40FE045F040006060A80708D52346BA
:1012400010220D996FF00100AFF3008081E007E0FC
:10125000102223460D996FF00100FFF7DDF978E0C9
:101260004FF0000963284F46C8464B46CB4602D094
:101270005B2807D039E02079C00601D40120A060A6
:10128000012732E06269D4F80CB00B980121904735
:101290005E2807D14FF0010949466269D4F80CB0C5
:1012A0000B989047216939B900210A4603AB43F8EE
:1012B0002120491C0829FADBD8B3216949B308F178
:1012C000010862690B98012190475D28F4D1B9F1BA
:1012D000000F09D0002003A951F82020D24341F883
:1012E0002020401C0828F7DB03AB20690028207968
:1012F0004FEA40701ED05B462246CDF80080CDE913
:1013000001970D9900286FF0010020DAAFF30080FB
:101310001FE0C11703AA00EBD1614B1121F01F019F
:1013200002EB8302411A13680120884003431360D3
:10133000C7E719E00D99224600286FF001000097D9
:1013400002DAAFF3008004E0AFF3008001E0AFF316
:10135000008000280ADA401C06D10C9820B14FF01A
:10136000FF300FB0BDE8F08F5046FAE7E90701D132
:101370000AF1010A064400200C9053E6CCCCCC0CB8
:101380002DE9F047814616468AB0354878440DC8A5
:101390008DE80D0032487844801C03AC0DC884E809
:1013A0000D0041F69B300844372190FBF1F290FB91
:1013B000F1F5A5F1800501FB12041B3C02D5644246
:1013C000012000E00020DFF898A080460027FA44C2
:1013D000AAF1BE0A0EE0E0070AD03246684607EBE3
:1013E000470101230AEB810100F050FB8DE8070063
:1013F00064107F1C002CEED1194F7F44AE3F19E0E2
:10140000E80715D007EB04100DF1180A90E80E005C
:101410008AE80E00C068F04201D19819089032465F
:10142000012306A903A800F031FB03AB83E8070002
:101430006D10641C002DE3D14FF001033246694664
:10144000B8F1000F03A802D000F00BFB01E000F0A0
:101450001DFBC9E90001C9F808200AB0BDE8F08702
:101460008855000000487047600500207546FFF76A
:10147000F9FFAE4605006946534620F00700854651
:1014800018B020B5FEF71EFFBDE820404FF0000663
:101490004FF000074FF000084FF0000B21F007015C
:1014A000AC46ACE8C009ACE8C009ACE8C009ACE89F
:1014B000C0098D467047000010B5FFF715FD001DEF
:1014C00010BD00BFA140000010B50446AFF300807E
:1014D0002046BDE81040FEF7E1BE00004FF0013CA1
:1014E00050F8042B51F8043B9A4221D1A2EB0C0393
:1014F000934313EACC1317D150F8042B51F8043B53
:101500009A4215D1A2EB0C03934313EACC130BD1EF
:1015100050F8042B51F8043B9A4209D1A2EB0C037A
:10152000934313EACC13DBD04FF00000704700BFA9
:10153000D01A01BAB1FA81F101F0180122FA01F0D2
:10154000CB40C1F12001DBB2C0B2C01A2CFA01F3CA
:10155000D11A914311EAC311E6D17047014918200D
:10156000ABBEFEE72600020070475FEA400C08BFF2
:1015700091F0000F4FEA8C234FEAC12243EA515108
:101580004FEA1C5018BF00F5F0404FEA300018BF7A
:1015900041F000415FEA6C5C00F02980BCF1FF3F44
:1015A00008BF40F080407047130C06BF12044FF094
:1015B000100C4FF0000C130E04BF12020CF1080CBB
:1015C000130F04BF12010CF1040C930F04BF92001F
:1015D0000CF1020CD30F04BF52000CF1010C1146A8
:1015E0004FF00002A0F11F00A0EB0C00704711F0BB
:1015F000004F08BF704731F000413FF4D5AF0B0CEE
:1016000006BF09044FF0100C4FF0000C0B0E04BF86
:1016100009020CF1080C0B0F04BF09010CF1040CBA
:101620008B0F04BF89000CF1020CCB0F04BF4900E3
:101630000CF1010CCCF12003A0EB0C0022FA03F317
:1016400002FA0CF241EA030100F10100704720F0B8
:101650007F4C80EA030023F07F47ACEB070303F5E0
:101660007C5300F0004003F1FF032DE980494FEA6D
:10167000154B09B44FEA144325EA0B4E24EA0348FC
:101680000FF2042606EB132749083E785FEA320280
:1016900003FB0667C7F5000707FB06F64FEA54375A
:1016A0004FEAD64606F1020607FB066CCCF1005C59
:1016B0004FEA1C472CEA074C07FB06F40CFB06F527
:1016C00004EB15464FEA961634BF00204FF0004059
:1016D0004FEAD13706FB07FC4FEA1C4C0CFB0BF71B
:1016E000D21B03FB0CF761EB07010CFB0EF7B0EB11
:1016F000074072EB17420CFB08F734BFA2EB07421E
:10170000B2EB074261EB17414FEA0C444FEA9107F5
:1017100006FB07FC4FEA1C4C0CFB0BF7B0EBC74079
:1017200072EB573203FB0CF734BFA2EBC742B2EBAC
:10173000C74261EB57310CFB0EF7B0EBC70072EB01
:1017400057720CFB08F734BFA2EBC702B2EBC7021B
:1017500061EB5771039F4FEA816141EA921104EBFB
:10176000CC044FEAD1374FEA826206FB07FC42EA1B
:1017700090124FEA80604FEA1C4C0CFB0BF7D21B17
:1017800003FB0CF761EB07010CFB0EF7B0EB074016
:1017900072EB17420CFB08F734BFA2EB0742B2EB27
:1017A000074261EB17414FEA8C554FEA910704EB72
:1017B0009C2406FB07FC4FEA1C4C0CFB0BF7B0EB20
:1017C000C74072EB573203FB0CF734BFA2EBC742A2
:1017D000B2EBC74261EB57310CFB0EF7B0EBC70021
:1017E00072EB57720CFB08F734BFA2EBC702B2EBE7
:1017F000C70261EB577115EB4C254FEA816141EA55
:1018000092114FEA82624FEAD13742EA901206FB08
:1018100007FC44F100044FEA80604FEA1C4C0CFBCB
:101820000BF7D21B03FB0CF761EB07010CFB0EF768
:10183000B0EB074072EB17420CFB08F734BFA2EB8A
:101840000742B2EB074261EB174115EB1C154FEA5B
:10185000813141EA92414FEA823242EA90424FEAB4
:1018600080304FEA0C7644F1000448EA03434EEA24
:101870000B484FF0000EB2EB080C71EB030724BFCE
:10188000624639464EEB0E0E4FF0000B00185241E7
:1018900049414BEB0B0BB2EB080C71EB03077BF1EF
:1018A000000B24BF624639464EEB0E0E4FF0000B84
:1018B0000018524149414BEB0B0BB2EB080C71EB9A
:1018C00003077BF1000B24BF624639464EEB0E0E38
:1018D00051EA020718BF46F0010616EB0E7655F1E5
:1018E000000254F1000103D5BDE88901BDE800887C
:1018F000BDE88901BDE80048B619524141EB01013C
:10190000A3F10103704780807F7E7D7C7B7A7978AC
:10191000777676757473727171706F6E6E6D6C6CB4
:101920006B6A6A6968686766666564646363626156
:101930006160605F5F5E5E5D5D5C5C5B5B5A5A59D7
:101940005958585757565655555554545353525243
:101950005251515050504F4F4F4E4E4D4D4D4C4C9B
:101960004C4B4B4B4A4A4A494949484848474747E4
:101970004746464645454544444444434343434221
:10198000424242414141002B9C4630D477002BD04B
:101990001CB54FEA370703B44FF010004FF01001A9
:1019A000BAF1000F06D0BCF1000FDCBF40F0080018
:1019B00040F008014FF000000FBCBDE810400BF1F3
:1019C000010BBBF1010F08BF5FEA170722BF12F13D
:1019D000010211F101014FF0004143F1000300F059
:1019E000004043EA00007047F9D35708D0E746EAC1
:1019F000064613F1400F4FEA16461FDD13F1200F84
:101A0000DFBF16430A46002120335B42BED0C3F13C
:101A1000200746EA064602FA07F74FEA164646EA64
:101A20000706C3F1200722FA03F201FA07F721FAA9
:101A300003F14FF0000342EA0702A7E746EA020675
:101A400046EA06464FEA164646EA0106BCBF46EAA3
:101A50000646360C4FF000034FF000024FF0000135
:101A600094E72DE9804C9A46934670B491E838008B
:101A700007C831EA400C48BF34EA430C03D5FFF7EE
:101A8000E6FDFFF780FFF0BCBDE8008C2DE9804C3F
:101A90009A46934670B491E8380007C810F0804F1A
:101AA00008BF13F0804F03D100F005F8FFF76BFF7C
:101AB000F0BCBDE8008C20F07F4780EA030023F0F3
:101AC0007F4C07EB0C03A3F57C5300F00040A3F11F
:101AD000FE0392F0000F00F0B38095F0000F00F0CD
:101AE00077802DE901494FEA11404FEA144621EA77
:101AF000004800FB06FC24EA064708FB06F607FB45
:101B000008F800FB07F718EB06484CEB164C4FEAB9
:101B1000124B18EB07484FEA15464CEB174022EAE8
:101B20000B4E0BFB06FC25EA06470EFB06F607FBF1
:101B30000EFE0BFB07F71EEB064E4CEB164C4FF060
:101B400000061EEB074E4CEB174B18EB0B0840F151
:101B5000000018EB0E0B58EB000840F100008F1A44
:101B60004FF000013CBFC943661B14BFB5EB040C2A
:101B700000213CBFC943F61B4FEA17444EEA8E0EC4
:101B800027EA04454FEA1C4704FB07622CEA074C8E
:101B900005FB07F70CFB05F604FB0CFC16EB0746F0
:101BA00042EB174216EB0C4642EB1C421BEB0606BF
:101BB00058EB0202414146EA9E0601D5BDE8018983
:101BC000B619524141EB0101A3F10103BDE80189BE
:101BD0004FEA14454FEA114724EA054621EA074C2B
:101BE00005FB07F406FB07F70CFB06F105FB0CFCF5
:101BF00011EB074144EB17444FEA124711EB0C413C
:101C000044EB1C4422EA074C05FB07F206FB07F7EE
:101C10000CFB06F605FB0CFC16EB074642EB1742E5
:101C200016EB0C4642EB1C456A1854F1000148BF04
:101C30007047B619524141EB0101A3F1010370470E
:101C400095F0000F37D04FEA11424FEA144721EACE
:101C5000024624EA074C02FB07F106FB07F70CFBE0
:101C600006F402FB0CFC14EB074441EB17414FEA6E
:101C7000154714EB0C4441EB1C4125EA074C02FBD1
:101C800007F506FB07F70CFB06F602FB0CFC16EB50
:101C9000074645EB174516EB0C4645EB1C4212195F
:101CA00051F1000148BF7047B619524141EB0101A3
:101CB000A3F1010370474FEA14454FEA114724EAA4
:101CC000054621EA074C05FB07F106FB07F70CFB6D
:101CD00006F24FF0000605FB0CFC12EB074241EB4D
:101CE000174112EB0C4251EB1C4148BF7047921850
:101CF00041EB0101A3F101037047FEE700EE100A7A
:101D00009FED161A10B5B8EE400A4329C0EE010A3D
:101D10009FED130A13D0562910D110EE900A03F04C
:101D20003DFC41EC100B03F01BFA00EE100AF2EE42
:101D3000000AB8EEC00A00BF20EE200A10BD10EE67
:101D4000900A03F02BFC41EC100B03F009FA00EEB3
:101D5000100AF1EE040AB8EEC00AEDE70000614592
:101D600000000000014800F0FAB800001C0100204B
:101D7000014800F0F4B800007C0100200D49026821
:101D80008A4201D20C4901E00B492031D2B214231E
:101D9000083AB2FBF3F2436C02F01F0223F0030394
:101DA0001944816404498031C16401219140016575
:101DB0007047000008040240000802400179074A09
:101DC00002EB81024265054A4432491E826501F0F8
:101DD0001F0201219140C16570470000FC080240CC
:101DE00030B5D0E913456560446D14B1D0E91645AE
:101DF000656090F8444004F01F050124AC40056C78
:101E00006C60046863608368102B036803D099607A
:101E10000068C26030BD9A600068C16030BD704724
:101E2000002240F6B83306E00021491C89B29942ED
:101E3000FBD3521C92B28242F6D3704772B6FEE7D1
:101E40002DE9F041074600240A4E0B4D08E000BF83
:101E500006EB041004223946FEF7A3FC38B1641CDB
:101E600028788442F4DB4FF0FF30BDE8F081204653
:101E7000FBE70000400200203800002010B590F879
:101E8000253000210122022B03D00421C16301214E
:101E900022E003681C6824F00E041C60836C1C683C
:101EA00024F480741C6003681C6824F001041C6026
:101EB00090F84430046C03F01F0302FA03F36360EC
:101EC000D0E913345C60436D33B11C6824F4807432
:101ED0001C60D0E916345C6080F82520002280F870
:101EE0002420084610BD70B590F82520002401215B
:101EF0002346022A07D00422C26380F8251080F806
:101F00002430012429E00268156825F00E051560CB
:101F10000268156825F001051560826C156825F4C6
:101F20008075156090F84420056C02F01F0201FADC
:101F300002F26A60D0E913255560426D32B115682E
:101F400025F480751560D0E91625556080F82510B8
:101F500080F82430816B01B18847204670BDF0B411
:101F6000016C0C6801680D6890F8442002F01F06AF
:101F7000042202FA06F3234211D06B070FD50B6837
:101F80009B0603D40B6823F004030B6090F8441005
:101F900001F01F018A40016C4A60016B1DE00223C1
:101FA00003FA06F727424FF0000C4FF0010218D059
:101FB000AF0716D50C68A40605D40C6824F00A04F3
:101FC0000C6080F8252090F8441001F01F018B4030
:101FD000016C4B6080F824C0C16A00291AD0F0BCA3
:101FE00008470823B340234214D02B0712D50B68AF
:101FF00023F00E030B6090F84410036C01F01F01F6
:1020000002FA01F15960C26380F8252080F824C0EB
:10201000416BE2E7F0BC704770B504000CD02B4A6E
:1020200021681420914209D2294A0A44B2FBF0F0F7
:102030008000606427480AE0012070BD234A5242B4
:102040000A44B2FBF0F08000606420480838206445
:10205000022084F825000A6847F6F0708243D4E92C
:1020600002031843D4E904352B431843A3691843EA
:10207000E3691843236A1843104308602046FFF7BA
:102080007DFEA0680025B0F5804F00D16560A16C91
:1020900020790860D4E9130141606068401E03287C
:1020A00008D82046FFF78AFE606D0560D4E9160166
:1020B000416002E06565A565E565E563012084F89A
:1020C000250084F82450002070BD00000804024060
:1020D000F8FFFDBF0000024070B5044690F82400F0
:1020E000002501280CD0012084F8240094F82560F4
:1020F0000020012E06D084F824000225284670BD59
:10210000022070BD022684F82560E063206806681E
:1021100026F0010606602046FFF762FE206B0028CD
:102120002068016802D041F00E0106E021F00401B0
:1021300001602068016841F00A010160A06C01683B
:10214000C90303D5016841F480710160606D18B165
:10215000016841F4807101602068016841F001016B
:102160000160CBE770B5044600F03CF90546601C01
:1021700002D004484068044400F034F9401BA042F7
:10218000FAD370BD000000202DE9F04FDFF8209257
:10219000002301260324A9F1040B85B00F2709F1C0
:1021A000040AABF1040EFAE006FA03F52A407CD0EB
:1021B00091F804C00CF0030CBCF1010F02D0BCF18B
:1021C000020F26D1D0F808C0CDF800C04FEA430C6A
:1021D00004FA0CF8CDF810C0DDF800C02CEA080CA9
:1021E000CDF800C0D1F80C80DDF810C008FA0CF86A
:1021F000DDF800C048EA0C08C0F80880D0F804C038
:102200002CEA050C0D79C5F300159D4045EA0C0537
:1022100045600D79ED43AD070ED0C5684FEA430820
:1022200004FA08FC25EA0C05D1F808C00CFA08FCF1
:102230004CEA050CC0F80CC00D7905F00305022D21
:1022400016D1DD0800EB850CCDF808C0DCF8208045
:102250005D074FEAD56C07FA0CF528EA05080D6909
:1022600005FA0CF5DDF808C045EA0805CCF8205061
:1022700005684FEA430CCDF808C004FA0CFC25EAC7
:102280000C0591F804C00CF00308DDF808C008FA4A
:102290000CF848EA0508C0F800804D6815F4403F86
:1022A0007CD0444DD5F860C000E077E04CF0010CE4
:1022B000C5F860C02D6E23F0030C05F001050095F4
:1022C0003D4D65440295AD684FEA837C4FEA1C782A
:1022D00007FA08FC25EA0C05B0F1904F06D0DFF8AC
:1022E000DCC0604505D14FF0010C20E04FF0000C40
:1022F0001DE0DFF8CCC0604502D14FF0020C16E0C3
:10230000DFF8C0C0604502D14FF0030C0FE0DFF8EA
:10231000B8C0604502D14FF0040C08E0DFF8ACC053
:10232000604502D14FF0050C01E04FF0060C0CFAAD
:1023300008FC4CEA050C029DC5F808C0D9F800500D
:10234000CC46D1F8048095435FEAC82800D51543F0
:10235000CCF80050DAF80050D446D1F80480954308
:102360005FEA882800D51543CCF80050DBF8005010
:10237000DC46D1F8048095435FEA883800D51543E0
:10238000CCF80050DEF80050F446D1F804809543B4
:102390005FEAC83800D51543CCF800505B1C0A68CA
:1023A00032FA03F57FF400AF05B0BDE8F08F00000E
:1023B00008040140001002400000014000040048F1
:1023C00000080048000C00480010004800140048B5
:1023D0000069084000D0012070470AB18161704750
:1023E000816270470148806870470000000000204B
:1023F00002488168426811448160704700000020F3
:1024000010B50024032000F073F80F2000F008F846
:1024100008B1012401E000F025F8204610BD0000BD
:1024200070B50E4E05460024706898B14FF47A716D
:10243000B1FBF0F00A490968B1FBF0F000F060FD73
:1024400040B9102D06D200222946501E00F030F867
:10245000356000E00124204670BD0000000000202F
:102460000C0000200A4882B0016E41F001010166B3
:10247000016E01F001010091816D41F08051816593
:10248000806D00F08050009002B000F0A1B8000014
:1024900000100240002809DB00F01F0201219140DA
:1024A0004009800000F1E020C0F8001170470000F2
:1024B000F0B40E4B1B680C46C3F30223C3F10705AF
:1024C000042D00D90425191D072901D2002300E09D
:1024D000DB1E012606FA05F1491E214099409E4067
:1024E000761E16403143F0BC02F0B5BD0CED00E0A5
:1024F000064900F0070208684FF6FF03184040EA5B
:102500000220034A10430860704700000CED00E011
:102510000000FA052B492C4B0A6832214A432B490B
:1025200040B1B0F5007F086829D020F4C06040F4C5
:1025300080602CE00868C0F34120022804D051F8E4
:10254000800F20F4807022E0D1F8800020F48070A9
:10255000C1F88000086820F4C06040F40070086092
:10256000B2FBF3F0401C00E0401E4A69520501D561
:102570000028F9D1486940050AD503207047C0F307
:102580004120022806D051F8800F40F48070086086
:1025900000207047D1F8800040F48070C1F88000BE
:1025A000086820F4C06040F400700860B2FBF3F0EB
:1025B000401C00E0401E4A695205DBD50028F9D1D5
:1025C000D8E700000C00002040420F0000700040DF
:1025D0000248816841F4804181607047007000408A
:1025E0002DE9F8430446006800269D4D00035ED5A2
:1025F000A86D0027C00008D4A86D40F08050A865E1
:10260000A86D012700F080500090DFF85892D9F8AB
:10261000001041F48071C9F80010FFF7E3FE804616
:1026200006E000BFFFF7DEFEA0EB080002282BD873
:10263000D9F80000C005F5D5D5F8900010F4407029
:1026400014D0216C814211D0D5F89000D5F89010AB
:1026500020F4407041F48031C5F89010D5F8901006
:1026600021F48031C5F89010C5F89000C00711D052
:10267000FFF7B8FE804641F2883907E0FFF7B2FE67
:10268000A0EB0801494501D903260BE0D5F89000DD
:102690008007F3D5D5F89000216C20F440700843F2
:1026A000C5F890001FB1A86D20F08050A865207873
:1026B000C00707D0D5F88800616820F00300084300
:1026C000C5F888002078800707D5D5F88800A1686C
:1026D00020F00C000843C5F888002078400707D593
:1026E000D5F88800E16820F030000843C5F888007C
:1026F0002078000707D5D5F88800216920F0C000B0
:102700000843C5F888002078800607D5D5F88800EA
:10271000616920F440600843C5F8880020784006CD
:1027200007D5D5F88800A16920F440500843C5F8C2
:1027300088002078000607D5D5F88800E16920F4E4
:1027400040400843C5F888002088C00507D5D5F863
:102750008800216A20F440300843C5F888002088AA
:10276000800507D5D5F88800616A20F44020084329
:10277000C5F88800208840050FD5D5F88800A16AE3
:1027800020F440100843C5F88800A06AB0F5801F07
:1027900003D1E86840F48010E860208800050FD578
:1027A000D5F88800E16A20F440000843C5F88800A5
:1027B000E06AB0F5800F03D1E86840F48010E8606B
:1027C0002088C0040FD5D5F88800216B20F0407018
:1027D0000843C5F88800206BB0F1807F03D1E8681A
:1027E00040F48010E86020884FF0006180040ED52E
:1027F000D5F88800626B20F040601043C5F888006F
:10280000606B884203D1E86840F48010E86020885B
:1028100040040ED5D5F88800A26B20F0406010432C
:10282000C5F88800A06B884203D1E86840F48010A6
:10283000E860208800040FD5D5F88800E16B20F00F
:1028400040500843C5F88800E06BB0F1805F03D1C9
:10285000E86840F48030E8603046BDE8F883000066
:1028600000100240007000402DE9F0470E460500C0
:102870004FF0000725D0DFF8AC81D8F8000000F059
:102880000F00B0420CD2D8F8001021F00F013143F4
:10289000C8F80010D8F8000000F00F00B04210D1C6
:1028A0002968614CC80741F2883A5AD06868DFF855
:1028B0007C91032808D0022820682DD040050028EC
:1028C0002CDB0120BDE8F08720688001F9D5E068A5
:1028D00000F00302E068C0F30310401C032A19D083
:1028E000534A00BFB2FBF0F0E268C2F30622504345
:1028F000E268C2F34162521C5200B0FBF2F048455C
:1029000017D9A06810F0F00F0CD0880711D5A8686F
:1029100040B10EE0474AE5E78003D0E700F0B6F8A3
:10292000484506D9A06820F0F00040F08000A06083
:102930008027A068696820F003000843A060FFF7C3
:1029400051FD814606E000BFFFF74CFDA0EB0901F9
:1029500051453AD8A068696800F00C00B0EB810FCF
:10296000F2D12868810714D5400703D5A06840F448
:10297000E060A0602878000705D5A06820F46050CA
:1029800040F4E060A060A068A96820F0F00008436F
:1029900004E0802F03D1A06820F0F000A060D8F8F8
:1029A0000010404601F00F01B14216D9016821F034
:1029B0000F0131430160FFF715FD074607E000BF37
:1029C000FFF710FDC11B514501D903207AE7D8F864
:1029D000000000F00F00B042F2D12878400705D582
:1029E000A068E96820F4E0600843A0602878000748
:1029F00006D5A068296920F4605040EAC100A060B3
:102A000000F044F8A1680C4AC1F30311515C01F0D5
:102A10001F01C8400949086009480068BDE8F0473F
:102A2000FFF7FEBC002002400010024000B4C404C6
:102A30000024F40000366E01B45600080C0000209B
:102A4000000000200548064900688968054AC1F36E
:102A50000221515C01F01F01C84070470C000020AA
:102A600000100240C45600080548064900688968FD
:102A7000054AC1F3C221515C01F01F01C8407047F3
:102A80000C00002000100240C4560008184910B580
:102A90008868C0F381021748012A0BD08A68164B58
:102AA000C2F38102022A06D08A68C2F38102032A95
:102AB00003D0002010BD184610BDCA6802F0030400
:102AC000CA68C2F30312521C032C02D0B0FBF2F00E
:102AD00001E0B3FBF2F0CA68C968C2F306225043B2
:102AE000C1F34161491C4900B0FBF1F010BD000089
:102AF000001002400024F40000366E012DE9F84376
:102B000004007AD02078F84DC00747D0A868E9685B
:102B100000F00C0001F003010C2802D0082817D0A7
:102B200001E0032914D06068B0F5803F17D0B0F5FC
:102B3000A02F286817D020F480302860286820F45F
:102B4000802028606068E0B1FFF74CFC064614E086
:102B50002868800322D560680028D2D01EE028684B
:102B600040F48030EDE740F480202860F7E700BFB4
:102B7000FFF738FC801B642870D828688003F7D5DD
:102B80000CE0FFF72FFC064605E000BFFFF72AFC2C
:102B9000801B6428F0D828688003F7D42078800749
:102BA0004CD5A868E96800F00C0001F003010C287E
:102BB00002D004280DD001E002290AD0E0680028E4
:102BC00028682BD040F480702860FFF70BFC064685
:102BD00019E02868400502D5E068002891D06868AF
:102BE000217C20F0FE4040EA01606860BF48006838
:102BF000FFF716FC002800D120E072E1FFF7F2FB9E
:102C0000801B0228B8D828684005F7D56868217C61
:102C100020F0FE4040EA016068600FE020F4807020
:102C20002860FFF7DFFB064605E000BFFFF7DAFB91
:102C3000801B0228A0D828684005F7D42078000718
:102C400029D560690028D5F8940013D040F0010020
:102C5000C5F89400FFF7C6FB064606E090E000BF0B
:102C6000FFF7C0FB801B022886D8D5F894008007A8
:102C7000F6D510E020F00100C5F89400FFF7B2FB94
:102C8000064604E0FFF7AEFB801B022878D8D5F893
:102C900094008007F6D42078400761D5A86D0026FF
:102CA000C00008D4A86D40F08050A865A86D01262A
:102CB00000F0805000908E480168C90511D4016869
:102CC000804641F480710160FFF78CFB074604E009
:102CD000FFF788FBC01B022852D8D8F80000C005B7
:102CE000F6D5A068012815D00528D5F8900016D093
:102CF00020F00100C5F89000D5F8900020F0040005
:102D0000C5F89000A06841F28838B8B1FFF76AFBB7
:102D100007460EE0D5F8900040F00100F0E740F0E3
:102D20000400C5F89000F5E7FFF75CFBC11B4145C7
:102D300026D8D5F890008007F6D50CE0FFF752FBB7
:102D4000074604E0FFF74EFBC11B414518D8D5F8F4
:102D500090008007F6D41EB1A86D20F08050A865C1
:102D60002078800629D5A0690028D5F8980013D0CE
:102D700040F00100C5F89800FFF734FB064606E076
:102D800075E000BFFFF72EFB801B02286FD8D5F837
:102D900098008007F6D510E020F00100C5F89800F3
:102DA000FFF720FB064604E0FFF71CFB801B022810
:102DB0005DD8D5F898008007F6D4E069F0B3A9682B
:102DC000C1F3810103295DD00228286820F08070BA
:102DD000286003D0FFF706FB04464BE0FFF702FB39
:102DE000064604E0FFF7FEFA801B02283FD8286859
:102DF0008001F7D4F4E908016FF00F0202EB011132
:102E00000843218A5204490802EB4151A26841EA71
:102E100002210843217D4FF07E42490802EB4161C7
:102E20000843217B40EAC160E968324A1140084307
:102E3000E860286840F08070286000E05EE0E868A4
:102E400040F08070E860FFF7CDFA044605E000BF6F
:102E5000FFF7C8FA001B022809D828688001F7D5B7
:102E60004CE000BFFFF7BEFA001B022802D9032086
:102E7000BDE8F88328688001F4D4E8681E4908405A
:102E8000E8603BE00128F3D0E868226A00F0030123
:102E9000914226D1616A00F0F00209011039914295
:102EA0001FD1A26A00F4FE41B1EB022F19D194F8B0
:102EB0002C2000F07841B1EBC26F12D1218E00F4CA
:102EC000C00249084905A1F50011914209D194F8C1
:102ED000341000F0C06049084906A1F10071814238
:102EE0000CD00120C4E700000010024000000020C8
:102EF000007000400C809F01FCFFEEFE0020B7E751
:102F000010B5401EB0F1807F01D3012010BD4FF0FD
:102F1000E02460610F21601702F09DF80020A0619D
:102F200007202061002010BDF0B590F83C20012A58
:102F30003AD0012580F83C50022280F83D200368F9
:102F40005A689C68194E1A4FB34201D0BB4204D153
:102F500022F4700C4A6842EA0C02DFF858C002EA18
:102F60000C02D1F800C04CEA020CC3F804C002689D
:102F7000B2420DD0B2F1804F0AD00F4B9A4207D027
:102F80000E4B9A4204D0BA4202D00D4B9A4204D161
:102F9000896824F080031943916080F83D50002136
:102FA00080F83C100846F0BD0220F0BD002C014026
:102FB000003401408FFFFFFD000400400008004086
:102FC0000040014010B586B0044614216846FDF764
:102FD00033FC0E492068884215D10D48C16C41F080
:102FE0000101C164C06C002100F001000590802047
:102FF00000900220CDE90101CDE9031069464FF0B0
:103000009040FFF7C1F806B010BD0000000400407A
:103010000010024070B5044690F83C0000260D46B2
:1030200001280BD0012084F83C000C2A4AD007DC90
:1030300082B1042A20D0082A06D131E0022070BDD6
:10304000102A53D0142A63D00126002084F83C00B3
:10305000304670BD206801F079FA2068816941F03E
:10306000080181612068816921F004018161206883
:1030700081692A69114311E0206801F0B5FA2068DE
:10308000816941F4006181612068816921F4806176
:103090008161206881692A6941EA02218161D4E75E
:1030A000206801F0E9FA2068C16941F00801C161B6
:1030B0002068C16921F00401C1612068C1692A69E1
:1030C000114311E0206801F01FFB2068C16941F441
:1030D0000061C1612068C16921F48061C16120681B
:1030E000C1692A6941EA0221C161AEE7206801F0A5
:1030F00053FB2068016D41F0080101652068016DF6
:1031000021F0040101652068016D2A69114311E075
:10311000206801F079FB2068016D41F400610165D0
:103120002068016D21F4806101652068016D2A69C4
:1031300041EA0221016588E710B5040003D094F844
:103140003D0010B107E0012010BD002084F83C00D4
:10315000204600F023F8022084F83D00211D20685D
:1031600001F088F9012084F8480084F83E0084F8D2
:103170003F0084F8400084F8410084F8420084F85D
:10318000430084F8440084F8450084F8460084F83D
:10319000470084F83D00002010BD000008B500681D
:1031A0000649884208D10648816D41F002018165D7
:1031B000806D00F00200009008BD00000004004097
:1031C0000010024030B50446022269B1042912D031
:1031D000082917D00C291CD0102921D094F84300BD
:1031E000012824D0012030BD94F83E000128F9D1F7
:1031F00084F83E201DE094F83F000128F2D184F8C5
:103200003F2016E094F840000128EBD184F84020DC
:103210000FE094F841000128E4D184F8412008E04F
:1032200094F842000128DDD184F8422001E084F8BE
:1032300043200122206801F07BF9194B20681949CD
:10324000194A984209D0884207D0904205D0174DBC
:10325000A84202D0164DA84203D1456C45F4004562
:103260004564206898420CD0B0F1804F09D0114BD2
:10327000984206D0104B984203D0884201D0904229
:1032800007D181680D4A1140062906D0B1F5803F6B
:1032900003D0016841F001010160002030BD000051
:1032A000002C014000340140004001400044014036
:1032B00000480140000400400008004007000100F1
:1032C00090F88410012918D0012180F8841024215D
:1032D000C0F8881001680A680B6823F001030B60CE
:1032E00022F0005100224266036819602021C0F8D4
:1032F000881080F88420104670470220704710B56F
:103300000446D0F88C00202801D0022010BD61B105
:103310005AB10120E06600202067204601F0DEFD62
:103320000028F3D1E16E012901D0012010BD2268EF
:1033300010211162226852E8001F41F0100142E89A
:103340000013002BF6D110BD084A10B5904206D1EB
:1033500029B1074A00205054104600F013FEBDE882
:103360001040642202490148FFF7C9BF88000020CD
:10337000DC010020704770B5044690F884000128F5
:103380001DD0012084F884002420C4F8880020681F
:103390000568026822F0010202602068826822F05B
:1033A00060620A438260204601F08AFA2068056064
:1033B0002020C4F88800002084F8840070BD02201A
:1033C00070BD70B5044690F8840001281DD001201E
:1033D00084F884002420C4F8880020680568026806
:1033E00022F0010202602068826822F060420A43F3
:1033F0008260204601F064FA206805602020C4F84D
:103400008800002084F8840070BD022070BD7047E1
:10341000704770472DE9F04103680446D869196880
:103420009A6840F60F0528424FF000054FF002065B
:103430000AD187067ED501F0200702F0805C57EAAA
:103440000C0777D0616F3AE1B24FDFF8CCC217407A
:1034500001EA0C0C57EA0C0C6CD05FEAC07C0CD073
:103460005FEAC15C09D54FF0010CC3F820C0D4F865
:10347000903043F00103C4F89030830709D5D30797
:1034800007D023681E62D4F8903043F00403C4F8D8
:10349000903043070AD5D30708D026680423336247
:1034A000D4F8903043F00203C4F8903003070CD5F1
:1034B00001F020033B4308D0266808233362D4F888
:1034C000903043F00803C4F8903003050BD54B014E
:1034D00009D526684FF400633362D4F8903043F086
:1034E0002003C4F89030D4F89030002B3DD08006F3
:1034F00009D501F0200002F08051084303D0616F2C
:1035000009B120468847D4F89000216889684906A7
:1035100002D410F0280F2AD0204601F059FB206871
:10352000806840061ED52068083050E8001F21F052
:10353000400100E021E040E80012002AF3D1D4F875
:10354000800078B175498163D4F88000FEF7CBFC28
:1035500000280AD0D4F88000816B00E02046BDE846
:10356000F04108472046FFF754FFBDE8F0812046B0
:10357000FFF74FFFC4F89050F7E7D4F86CC020274E
:10358000BCF1010F7ED15FEAC06C7BD55FEAC16CF4
:1035900078D51020186220688068400645D5D4F898
:1035A0008010086840680004000CDED0B4F85C208D
:1035B0008242DAD9A4F85E000868006880062CD43C
:1035C000216851E8000F20F4807041E80002002AD1
:1035D000F6D12068083050E8001F21F0010140E8D2
:1035E0000012002AF5D12068083050E8001F21F0B1
:1035F000400140E80012002AF5D1C4F88C70E5665D
:10360000206850E8001F21F0100140E80012002A55
:10361000F6D1D4F88000FEF731FC2667B4F85C00E0
:10362000B4F85E10401A81B230E0B4F85C00B4F82F
:103630005E10401A81B2B4F85E00002895D00029CF
:1036400093D0226852E8000F20F4907042E8000303
:10365000002BF6D12F4BDB432068083050E8002FB9
:103660001A4040E8002CBCF1000FF5D1C4F88C7072
:10367000E5666567226852E8000F20F0100042E816
:10368000000300E006E0002BF4D126672046FFF798
:103690005BFE6AE7C60209D5560207D54FF48010D3
:1036A00018622046BDE8F041FFF7B2BE03060AD516
:1036B00001F0800302F40002134304D0A16F00293B
:1036C0007FF44CAF51E7420611D54A060FD520468C
:1036D000026852E8001F21F0400142E80013002B6D
:1036E000F6D1C0F88870856700F012F93DE7020254
:1036F00006D54A0004D52046BDE8F041FFF787BE55
:10370000C001C6D50029C4DA2046BDE8F041FFF764
:1037100031BE00000100001020010004794A0008B9
:1037200010B5040003D0D4F8880010B107E00120E0
:1037300010BD002084F88400204600F027F82420E3
:10374000C4F888002068016821F001010160A06AC6
:1037500010B1204601F0D6F8204601F085FA012884
:10376000E6D02068416821F490414160206881687A
:1037700021F02A0181602068016841F001010160A7
:103780002046BDE8104001F021B90000F0B597B027
:103790000646142111A8FDF74FF844216846FDF7AD
:1037A0004BF83249306888425ED101200024CDE9CF
:1037B00000046846FEF714FF08B1FEF73FFB2C48F3
:1037C000016E41F480410166016E01F48041169161
:1037D000C16C41F00101C164C06C11A900F001008D
:1037E00016904FF4C06011900220CDE9120407201A
:1037F000CDE914404FF09040FEF7C6FC1E4D1D4829
:10380000802728601820C5E90104C5E903476C61D9
:10381000AC61EC6128462C62FEF7FEFB08B1FEF7B6
:103820000DFBC6F88050AE62134D1248603514305F
:1038300028601920686005F10801102081E89100D6
:103840006C61AC61EC6128462C62FEF7E5FB08B1C7
:10385000FEF7F4FAF567002211462520AE62FEF766
:1038600027FE2520FEF716FE17B0F0BD00380140F8
:1038700000100240080002401C0100207047704701
:1038800070B50446D0F88800202801D0022070BD11
:1038900039B332B32165A4F85420A4F8562000218E
:1038A000C4F890102120C4F88800E06FD8B1154BFF
:1038B000C362E36F14481863E36F14485863E06F02
:1038C000134681632068E56F00F128022846216DC8
:1038D000FEF702FC38B11020C4F890002020C4F894
:1038E0008800012070BD21684020086220680830EF
:1038F00050E8001F41F0800140E80012002AF5D195
:10390000002070BD834B0008C54B00088D4A00089D
:1039100070477047FEE7000000B585B01421684687
:10392000FCF78AFF4FF6FF70009000200321CDE9DD
:103930000201019069460248FEF726FC05B000BD71
:103940000008004800B585B014216846FCF774FFF4
:103950004FF6FF700090012001900320039000209B
:10396000029069460248FEF70FFC05B000BD00005A
:10397000000800482DE9F0410A4E804630680024D6
:1039800085B22146204600F01DF900F061F94FF4A0
:103990009637404600F030F9641CBC42F9D33560DC
:1039A000BDE8F0811408004870B586B0142168465F
:1039B000FCF742FF1E48C16C41F00401C164C16CB8
:1039C00001F004010591C16C41F00101C164C16CB9
:1039D00001F001010591C16C41F00201C164C06CAC
:1039E000032500F0020005904FF4487001240026E2
:1039F00003958DE8510069460E48FEF7C5FB20028D
:103A000003958DE851004FF0904469462046FEF73B
:103A1000BBFBFFF797FFA06940F48070A0610548E9
:103A20001830016841F40871016006B070BD0000F3
:103A30000010024000040048203AD2B2034B02EBCF
:103A4000420203EB021200F023B80000CC5600083B
:103A50002DE9F043DFF8348081460E46D8F80000A7
:103A6000002587B240F23F1407E021464846FFF7A1
:103A7000E3FF103C6D1CA4B2761C32780AB1142D01
:103A8000F3D3C8F80070BDE8F083000014080048C4
:103A90002DE9F04791468A460026044600F092F848
:103AA000DFF84080012700BF00F0D2F85FF000058A
:103AB00039F8160007FA05F10842404601D140885E
:103AC00000E0008800F098F86D1C102DF0D3641C05
:103AD000E4B25146204600F075F8761C182EE3D368
:103AE000BDE8F0871000002070B50D4E306885B23B
:103AF000FFF75AFF002000F017F80A4CA080A088BA
:103B0000A0F50241303907D000F074FB002000F02E
:103B10000BF8A080356070BD00F0E3FAF6E7000016
:103B2000140800481000002070B51D490A6842F4CE
:103B300000720A600A6842F480720A60184C103CF5
:103B4000226842F020022260164A1060086840F0A5
:103B50002000086000BF00BF00BF206840F02000C8
:103B60002060206840F480702060FFF7D5FE4FF0A1
:103B70009041886A40F48070886200BF00BF00BF37
:103B80000848001F006885B2886940F48070886129
:103B9000FFF7D8FE206840F400702060284670BD12
:103BA000280400481408004801B504480168BDF81D
:103BB000002089B2024B5A80016008BD14080048F9
:103BC0001000002010B50C460146202000F06EF8D1
:103BD0002146BDE81040212000F068B801B5044836
:103BE0000168BDF8002089B2024B1A80016008BD4F
:103BF0001408004810000020134A116841F40071B5
:103C00001160114910390B6843F480730B600B6825
:103C100043F020030B600D4B1860106840F020004B
:103C2000106000BF00BF00BF086840F020000860BF
:103C3000086840F48070086000BF00BF00BF0868DB
:103C400040F40070086070472804004814080048D9
:103C50001449086840F400700860086840F48070F7
:103C6000086010481038026842F0200202600E4BD3
:103C700022221A600A6842F020020A6000BF00BFD8
:103C800000BF016841F020010160016841F48071CA
:103C9000016000BF00BF00BF016841F40071016016
:103CA000704700002804004814080048184B10B55D
:103CB0001A6842F400721A601A6842F480721A603C
:103CC000134A103A146844F020041460114C206028
:103CD000186840F02000186000BF00BF00BF1068E7
:103CE00040F020001060106840F480701060216087
:103CF000186840F02000186000BF00BF00BF1068C7
:103D000040F020001060106840F48070106010BD1A
:103D10002804004814080048114808B5816C41F097
:103D200004018164816C01F004010091816C41F017
:103D300001018164806C002200F0010000901146B6
:103D40000B20FEF7B5FB0B20FEF7A4FB002211466B
:103D50000C20FEF7ADFBBDE808400C20FEF79ABB37
:103D6000001002402DE9F04F87B014216846FCF79F
:103D700063FD4848C16C41F00401C164C16C01F0AD
:103D800004010591C16C41F02001C164C16C01F0D6
:103D900020010591C16C41F00101C164C16C01F0C9
:103DA00001010591C16C41F00201C164C16C01F0D7
:103DB00002010591C16C41F00801C164C06CDFF8DB
:103DC000D88000F00800059001224FF47F41404662
:103DD000FEF703FB0022FF214046FEF7FEFA4FF4F8
:103DE00080764FF09049002231464846FEF7F5FABA
:103DF000DFF8A8A0012204215046FEF7EEFADFF812
:103E0000A0B04FF45077002239465846FEF7E5FA45
:103E10004FF6FF70009001250024CDE9015469465A
:103E200040460394FEF7B0F9CDE900546946484690
:103E30000294FEF7A9F90520CDE900046946584629
:103E40000294FEF7A1F9022000904FF48810CDE90A
:103E5000010469465846FEF797F90096CDE90154EA
:103E6000694648460394FEF78FF904200090CDE997
:103E70000154694650460394FEF786F90097CDE950
:103E80000154694658460394FEF77EF907B0BDE831
:103E9000F08F00000010024000080048000C0048AD
:103EA0000004004810B58AB00024079408941C212F
:103EB00068460994FCF7C0FC16481549016040F2B9
:103EC0008F11C0E901146321C0E903148461FFF775
:103ED00033F908B1FDF7B2FF079407A90D4809941B
:103EE000FFF722F808B1FDF7A9FF6020CDE9000433
:103EF00002940422694607480494FFF78BF808B13E
:103F0000FDF79CFF0348FFF75DF80AB010BD000005
:103F1000000400403C000020184810B5164901601C
:103F20004FF416514160002181600C22C160C0E94C
:103F300004128161C161016241628162FFF7F0FB9D
:103F400008B1FDF77BFF00210C48FFF73AFA08B1F2
:103F5000FDF774FF00210948FFF70DFA08B1FDF7DE
:103F60006DFF0648FFF7ACF9002803D0BDE810400C
:103F7000FDF764BF10BD000000380140880000203C
:103F8000FEE7FEE72DE9F0439BB04FF00008044642
:103F9000CDF81080CDF81480CDF84C80CDF850804D
:103FA000CDF85480CDF85880CDF85C8004222146AD
:103FB00004A8CDF86080FCF766FC0422611D13A8FC
:103FC000FCF761FC0C2204F10A0115A8FCF75BFC6C
:103FD0009DF81000432801D0562841D115A800F0C3
:103FE0004BFC064613A8FDF72BFF334C334DDFF88F
:103FF000D090344900283ADB01EB0017387B0028C9
:104000002ED0B8684FF46162301A00F60F61B1FB30
:10401000F2F69DF81010FDF771FE9DF81000432890
:1040200021D02878401E287099F8001010EE100A50
:10403000491C89F8001001F0B1FACDE9020113AB77
:1040400004AA009620A106A8FCF7C6F906A8FCF76A
:1040500089FB82B206A92048FFF712FC87F80C8082
:104060001BB0BDE8F0832078401E2070DCE71B4FBA
:1040700038783228F4D2884601EB0010042213A9C4
:10408000FCF701FC3878012208EB0011401C8E601F
:104090000A7338709DF81000432809D02878401C16
:1040A00085F8000099F80010491E89F80010D7E73C
:1040B0002078401C2070F5E7160000201700002033
:1040C000180000204002002025733A25733A256429
:1040D0003A252E32660000008800002038000020BB
:1040E000704730B501210020FFF7E0FD4FF47A70F2
:1040F000FDF796FE00210120FFF7D8FD41F29071F7
:104100001020FFF7D3FD4FF41C516020FFF7CEFDC8
:1041100001216120FFF7CAFD02214620FFF7C6FDFD
:1041200048F210011320FFF7C1FD48F2FE011220F2
:10413000FFF7BCFD4FF4A0610220FFF7B7FD41F28D
:1041400030010320FFF7B2FD40F203342146302056
:10415000FFF7ACFD21463120FFF7A8FD21463220B4
:10416000FFF7A4FDE51E29463320FFF79FFD03213D
:104170003420FFF79BFD21463520FFF797FD1421E2
:104180003620FFF793FD21463720FFF78FFD2146AC
:104190003820FFF78BFD21463920FFF787FD2946A0
:1041A0003A20FFF783FD03213B20FFF77FFD2146E7
:1041B0003C20FFF77BFD4FF4A0513D20FFF776FD3B
:1041C0004FF400719220FFF771FD21469320FFF715
:1041D0006DFD40F60D019020FFF768FD41F21801DA
:1041E0000320FFF763FDBDE8304040F27311072064
:1041F000FFF75CBD10B543F20801E320FFF756FD61
:104200001221E720FFF752FD41F23121EF20FFF7A5
:104210004DFD00210120FFF749FD4FF4E061022030
:10422000FFF744FD41F230010320FFF73FFD00217D
:104230000420FFF73BFD40F207210820FFF736FD81
:1042400000210920FFF732FD00210A20FFF72EFD93
:1042500000210C20FFF72AFD00210D20FFF726FD8D
:1042600000210F20FFF722FD00211020FFF71EFD87
:1042700007211120FFF71AFD00211220FFF716FD7C
:1042800000211320FFF712FDC820FDF76BFF41F25C
:1042900090611020FFF70AFD40F227211120FFF75F
:1042A00005FD3220FDF75EFF1D211220FFF7FEFC09
:1042B0003220FDF757FF4FF400611320FFF7F6FCA3
:1042C00014212920FFF7F2FC0B212B20FFF7EEFC35
:1042D0003220FDF747FF00212020FFF7E7FC0021F7
:1042E0002120FFF7E3FC07213020FFF7DFFC40F23D
:1042F00007713120FFF7DAFC06213220FFF7D6FCE8
:1043000040F204713520FFF7D1FC41F604713620EC
:10431000FFF7CCFC04213720FFF7C8FC0021382030
:10432000FFF7C4FC40F206713920FFF7BFFC40F2F2
:1043300001713C20FFF7BAFC0F213D20FFF7B6FCCE
:1043400000215020FFF7B2FCEF215120FFF7AEFC17
:1043500000215220FFF7AAFC40F23F115320FFF743
:10436000A5FC4FF41C516020FFF7A0FC0121612047
:10437000FFF79CFC00216A20FFF798FC00218020B9
:10438000FFF794FC00218120FFF790FC00218220A0
:10439000FFF78CFC00218320FFF788FC002184209C
:1043A000FFF784FC00218520FFF780FC102190207E
:1043B000FFF77CFC00219220FFF778FC032193207B
:1043C000FFF774FC4FF488719520FFF76FFC002114
:1043D0009720FFF76BFC00219820FFF767FC41F264
:1043E00018010320FFF762FCBDE8104040F2731192
:1043F0000720FFF75BBC7047FDF7FABF10B594B01C
:1044000038216846FCF718FA14210EA8FCF714FAB4
:104410004FF40070FEF77EF8012000900004019038
:1044200002200324CDE907041421CDE90A100C90E1
:104430000D9009946846FEF761FB08B172B6FEE77D
:104440000F20CDE90E04002010901190129002214F
:104450000EA8FEF709FA002801D072B6FEE714B0E4
:1044600010BD00000248016841F47001016070470E
:1044700088ED00E02DE9F0430268264B264D274EDB
:10448000274C4FF08049984207D0484505D0A842B4
:1044900003D0B04201D0A04203D122F070074A6895
:1044A0003A43204FDFF880C0DFF8808098420DD07B
:1044B00048450BD0A84209D0B04207D0A04205D051
:1044C000B84203D0604501D0404503D122F4407585
:1044D000CA682A434D6922F080022A4302608A6832
:1044E000C2620A688262984207D0A04205D0B842F0
:1044F00003D0604501D0404501D109690163012124
:1045000041610169C90703D0016921F0010101611D
:10451000BDE8F083002C014000040040000800408A
:104520000034014000400140004401400048014087
:1045300010B501F01F030121046A99408C43046205
:10454000016A9A401143016210BD00002DE9F04359
:10455000056A026A22F001020262436882691C4C09
:1045600025F0020522400C6822F0030214438A68F9
:10457000194E2A43174D194FDFF864C0DFF86490D5
:10458000A84207D0B04205D0B84203D0604501D060
:10459000484506D122F00808CA6842EA080222F01B
:1045A0000402A84207D0B04205D0B84203D060450B
:1045B00001D0484505D14D6923F440731D438B69F3
:1045C0002B4343608461496841630262BDE8F08324
:1045D0008FFFFEFF002C01400034014000400140ED
:1045E0000044014000480140F0B5056A026A22F02B
:1045F0001002026242688369194C1B4E23400C680A
:1046000023F4407343EA042425F020038D6843EA31
:104610000513144DA84201D0B04206D1CF6823F053
:10462000800343EA071323F04003A8420AD0B042B4
:1046300008D00E4DA84205D00D4DA84202D00D4D18
:10464000A84207D14D6922F4406242EA85028D6991
:1046500042EA850242608461496881630362F0BD79
:10466000FF8FFFFE002C014000340140004001405C
:104670000044014000480140F0B5056A026A22F496
:10468000807202624368C269194C1B4E22400C685A
:1046900022F00302144325F400728D6842EA0522D9
:1046A000144DA84201D0B04206D1CF6822F4006276
:1046B00042EA072222F48062A8420AD0B04208D01F
:1046C0000E4DA84205D00E4DA84202D00D4DA84275
:1046D00007D14D6923F4405343EA05138D6943EA3A
:1046E00005134360C4614968C1630262F0BD000004
:1046F0008FFFFEFF002C01400034014000400140CC
:104700000044014000480140F0B5056A026A22F405
:10471000805202624268C369194C1B4E23400C68E8
:1047200023F4407343EA042425F400538D6843EADC
:104730000533144DA84201D0B04206D1CF6823F40E
:10474000004343EA073323F48043A8420AD0B0422F
:1047500008D00E4DA84205D00D4DA84202D00D4DF7
:10476000A84207D14D6922F4404242EA85128D6980
:1047700042EA85124260C461496801640362F0BD87
:10478000FF8FFFFE002C014000340140004001403B
:10479000004401400048014030B5056A026A22F435
:1047A000803202624268036D114C23400C681C4346
:1047B00025F400330D8943EA05430E4DA8420BD082
:1047C0000D4DA84208D00D4DA84205D00C4DA84271
:1047D00002D00C4DA84204D14D6922F4803242EA45
:1047E00005224260046549688164036230BD0000AF
:1047F0008FFFFEFF002C01400034014000400140CB
:10480000004401400048014030B5046A026A22F4C5
:10481000801202624268036D114D24F400142B4093
:104820000D6843EA05230D8944EA05540D4DA8425D
:104830000BD00D4DA84208D00C4DA84205D00C4D10
:10484000A84202D00B4DA84204D14D6922F4802227
:1048500042EA8522426003654968C164046230BD52
:10486000FF8FFFFE002C014000340140004001405A
:10487000004401400048014010B58AB006AC05ABC9
:1048800004AA09A98DE81E0008AB07AA07A1FBF737
:10489000A5FE04984FF4616148430599C1EB0111ED
:1048A00000EB810006990AB0084410BD2534642548
:1048B0003264253264253264253264253264000076
:1048C00030B5416EB9B1026891689268C1F3426136
:1048D0000B4B520F9C5CE50003F10804A25CB5FB96
:1048E000F2F2A0F86A205A5C615CD200B2FBF1F1EE
:1048F000A0F8681030BD0121A0F86A10F8E70000A8
:10490000A456000890F82810090706D501684A68DF
:10491000836B22F400421A434A6090F82810C907BA
:1049200006D001684A68C36A22F400321A434A601A
:1049300090F82810890706D501684A68036B22F4AD
:1049400080321A434A6090F82810490706D501685A
:104950004A68436B22F480221A434A6090F8281078
:10496000C90606D501688A68C36B22F480521A43CF
:104970008A6090F82810890606D501688A68036C59
:1049800022F400521A438A6090F82810490611D583
:1049900001684A68436C22F480121A434A60416CF1
:1049A000B1F5801F06D101684A68836C22F4C00209
:1049B0001A434A6090F82810090606D501684A682B
:1049C000C06C22F4002202434A6070472DE9F8438C
:1049D00000260446C0F89060FDF704FD804620687C
:1049E00000684FF0200500076FF07E4713D543465F
:1049F000002229042046009700F0C4FA58B121682B
:104A000051E8000F20F0800041E80002002AF6D1B2
:104A1000C4F8885021E020680068400722D543464A
:104A200000224FF480012046009700F0ABFAC8B195
:104A3000216851E8000F20F4907041E80002002A3C
:104A4000F6D12068083050E8001F21F0010140E84D
:104A50000012002AF5D1C4F88C5084F88460032039
:104A6000BDE8F883C4F88850C4F88C5044F86C6FE3
:104A7000666026760020F3E710B5806A0021A0F872
:104A80005E10A0F85610FEF7C4FC10BD70B5846A25
:104A9000D4F88800D4F88C50216889684FF000065B
:104AA000090606D5212804D1A4F85660204600F056
:104AB000B9F820688068400606D5222D04D1A4F8F4
:104AC0005E60204600F084F8D4F8900040F01000BA
:104AD000C4F890002046FEF79CFC70BD10B501465E
:104AE000806A096809684FF0000289062DD4A0F891
:104AF0005E20036853E8001F21F4807143E800142E
:104B0000002CF6D10168083151E8003F23F0010381
:104B100041E80034002CF5D10168083151E8003F2C
:104B200023F0400341E80034002CF5D12021C0F8E7
:104B30008C10C16E012908D1016851E8003F23F0B3
:104B4000100341E80034002CF6D10267C16E012940
:104B500002D0FEF793FE10BDB0F85C10FEF7F4FB38
:104B600010BD10B5806A01210167C16E012902D014
:104B7000FEF785FE10BDB0F85C104908FEF7E4FBB7
:104B800010BD10B50146806A09680968890616D407
:104B90000021A0F856100168083151E8002F22F0DA
:104BA000800241E80023002BF5D1026852E8001F83
:104BB00041F0400142E80013002BF6D110BDFEF792
:104BC000A7FE10BD10B5806AFEF7A3FE10BD000061
:104BD00010B5026852E8001F21F4907142E80013FA
:104BE000002BF6D10E4B0268083252E8001F194024
:104BF00042E80014002CF6D1C16E012908D10168E9
:104C000051E8002F22F0100241E80023002BF6D1DA
:104C10002021C0F88C100021C166416710BD000042
:104C2000FEFFFFEF026852E8001F21F0C00142E8DA
:104C30000013002BF6D10168083151E8002F22F44F
:104C4000000241E80023002BF5D12021C0F8881094
:104C500070470000642202490248FEF750BB000082
:104C6000DC010020880000202DE9F04104460168A5
:104C700080682269E3691043626900251A43104382
:104C8000DFF82CC20A688B4B1A4002430A60206886
:104C90004168E26821F44051114341602168A069F4
:104CA000614501D0226A10438A68834B1A4002434F
:104CB0008A602068C16A626A21F00F011143C162F3
:104CC0007E4923687E488B420DD1D0F8880010F0D1
:104CD000030006D0012855D0022842D003283FD136
:104CE00052E001203DE077498B420BD1D0F888009B
:104CF00010F00C0035D0042833D0082840D00C2800
:104D00002ED141E070498B420BD1D0F8880010F0D1
:104D1000300026D0102835D0202831D030281FD19F
:104D200032E06A498B420BD1D0F8880010F0C00005
:104D300017D0402826D0802822D0C02810D123E0C8
:104D400063450DD1D0F8880010F4406009D0B0F56B
:104D5000806F17D0B0F5006F12D0B0F5406F13D050
:104D600010205B495B4F00264FF4004263453BD166
:104D700060B1022813D004280BD0082872D10DE0AE
:104D80000220EEE70420ECE70820EAE7FDF75AFEF0
:104D900001E0FDF77BFE010001D17CE01146606A75
:104DA00037F810206768B1FBF2F007EB4703834246
:104DB00070D8B0EB073F6DD8002308461946FBF7C3
:104DC00093FA090241EA1061020278081018714151
:104DD0003A460023FBF788FA3F4AA0F5407191421A
:104DE00058D82168C86056E0E3694FF6EF789342DF
:104DF0002CD109284ED2DFE800F00508114D0D4DE9
:104E00004D4D1000FDF71EFE01E0FDF72DFE0100E7
:104E100004D140E0FDF73AFEF9E71146606A37F841
:104E20001000B1FBF0F04100606801EB5001B1FBF4
:104E3000F0F0A0F1100141452CD84FF6F07101407F
:104E4000C0F3420001432068C16024E0092821D258
:104E5000DFE800F0050912200E2020201100FDF7E8
:104E6000F1FD02E016E0FDF7FFFD010004D112E0C4
:104E7000FDF70CFEF9E71146606A37F81000B1FB48
:104E8000F0F1606801EB5001B1FBF0F0A0F110010E
:104E900041450AD901250120A4F86A0024F8680FC9
:104EA0002846E6602661BDE8F08180B299E70000FF
:104EB00000800040F369FFCFFFF4FF11003801408C
:104EC000001002400044004000480040004C0040F8
:104ED0000024F4008C560008FFFC0F0070B58165BB
:104EE000A0F85C2000210446C0F890102220C4F8ED
:104EF0008C00D4F88000F0B11F4BC362D4F880302E
:104F00001E481863D4F880301D485863D4F88000D8
:104F100013468163A56D21682A462431D4F88000A8
:104F2000FDF7DAF838B11020C4F890002020C4F85A
:104F30008C00012070BD206940B1216851E8000F4C
:104F400040F4807041E80002002AF6D12068083061
:104F500050E8001F41F0010140E80012002AF5D19D
:104F60002068083050E8001F41F0400140E800127E
:104F7000002AF5D1002070BDDD4A0008634B00080F
:104F80008D4A00082DE9F047994617460D4604461C
:104F90004FF00008089E33E0701C31D0FDF722FA74
:104FA000A0EB0900B04218D8BEB1206801684907DB
:104FB00026D5802D24D0402D22D0C169C9430907B0
:104FC0000DD4082505622046FFF702FEC4F8905074
:104FD00084F884800120BDE8F0870320FBE7C069E6
:104FE000C04300050CD421684FF4006008622046DD
:104FF000FFF7EEFD2020C4F8900084F88480ECE7F1
:105000002068C06935EA000004D00020B842C3D04F
:105010000020E0E70120F9E70148FEF7FBB90000B6
:1050200088000020FEE703B401984100009850EA90
:10503000C12018BF04204A0D18BF40F0010040F203
:10504000FF72B2EB515F08BF40F00200012808BFB9
:10505000052002B070470907090E002804DB00F1A3
:10506000E02080F80014704700F00F0000F1E0200D
:1050700080F8141D704730380A2801D2012070478B
:105080000020704707480178012907D1064901220D
:105090000B7822EA03030B7004490A7000210170A7
:1050A0007047000028000020260000202400002077
:1050B0000D484178012913D10C49097801290FD1F4
:1050C0000B49B6EE000AD1ED000A70EE800AC1ED80
:1050D000000A0849D1ED000A30EE800A81ED000A8D
:1050E00000214170704700002800002026000020A9
:1050F0001C000020200000200D488178012913D1D8
:105100000C49097801290FD10B49B6EE000AD1EDFF
:10511000000A70EEC00AC1ED000A0849D1ED000A8C
:1051200030EEC00A81ED000A002181707047000056
:1051300028000020260000201C0000202000002065
:105140000548C178012904D1044901220B789A430A
:105150000A700021C170704728000020250000203F
:1051600000EE100A10EE100AC0F3C7517F3917295C
:10517000A8BF7047DFED130A002930EE200A0DDAD0
:10518000B5EEC00AF1EE10FAD8BF70470028C8BFCC
:105190004FF07E50B8BF4FF0004070470A4A22FAE5
:1051A00001F210421CBFB5EEC00AF1EE10FAD8BFF2
:1051B0007047002804DD4FF4000323FA01F108448E
:1051C00090437047CAF24971FFFF7F0000B585B078
:1051D00011A11820FEF73CFC124813A10278684682
:1051E000FBF7FAF869464820FEF732FC114812A195
:1051F00002786846FBF7F0F869467820FEF728FC4D
:10520000104811A102786846FBF7E6F86946A82025
:10521000FEF71EFC05B000BD2020202020202044E9
:105220006174610016000020202020434E42523A53
:105230002564000017000020202020564E42523ADC
:10524000256400001800002020202049444C453AE5
:105250002564000000B585B012A11820FEF7F8FB08
:105260001348006800F09AF941EC100B11A153ECBF
:10527000102B6846FBF7B0F869464820FEF7E8FBBC
:105280001048006800F08AF941EC100B0EA153ECB5
:10529000102B6846FBF7A0F869467820FEF7D8FB8C
:1052A00005B000BD20202020202020506172610028
:1052B0001C000020202020434E42523A252E326608
:1052C0000000000020000020202020564E42523ACC
:1052D000252E32660000000070B50F480F4C0025E7
:1052E0000178207821B1012914D101280AD00CE0DD
:1052F000012802D10020FEF73DFB2570BDE870407B
:10530000FFF764BF0020FEF735FB2570BDE8704055
:10531000FFF7A0BF70BD0000260000202400002081
:105320002DE9F041FDF75EF83B4D0446012128468A
:10533000FDF74EF8394E022130702846FDF748F847
:10534000707004212846FDF743F8B07001214FF03A
:105350009040FDF73DF8F070034637780125A6F13F
:105360000802301D1146EFB990F800C0BCF1010FE2
:1053700003D0BCF1000F09D014E0D1F804C0A4EBB5
:105380000C0CBCF1960F0DD915700AE0D1F804C0D1
:10539000A4EB0C0CBCF1960F04D94FF0020C82F870
:1053A00000C04C60B64676786EB990F801C0BCF18A
:1053B000010F08D1D1F804C0A4EB0C0CBCF1960F7E
:1053C00001D955704C609EF802C0BCF1000F0DD1A0
:1053D00090F802E0BEF1010F08D1D1F804E0A4EB8F
:1053E0000E0EBEF1960F01D995704C606BB990F816
:1053F00003E0BEF1010F08D1D1F804E0A4EB0E0EDA
:10540000BEF1960F01D9D5704C600770467080F8D8
:1054100002C0C370BDE8F0810004004830000020E5
:1054200070B50E4E0D460446012204213046FCF7AD
:10543000D4FF4FF48070641EA040094B81B20DB1BF
:10544000002200E001221846FCF7C7FF3046BDE805
:10545000704000220421FCF7C0BF0000000C00488F
:10546000000800480A4810B5007808B1012100E0A2
:1054700000210120FFF7D4FF06480078012805D05D
:105480000021BDE810400220FFF7CABF0121F8E764
:105490001800002025000020FCF7B2FFFEF7AEFF49
:1054A000FEF760FCFEF738FCFEF736FDFEF7FAFC6F
:1054B000002204211348FCF790FF04211248FDF755
:1054C00081FEFEF711FB0020FEF76EFB4FF6FF702A
:1054D000FEF784FB0020FEF74DFAFFF7BBFB00BF91
:1054E000FFF71EFFFFF7CEFDFFF7E2FDFFF704FE1B
:1054F000FFF726FEFFF7B6FFFFF7EEFE00F006F817
:10550000EEE70000000C00483C000020084801784D
:1055100008480129006808D0002908D181630A469B
:1055200080214FF09040FCF758BF142181637047F1
:10553000250000203C00002010B500290AD0087882
:10554000002807D005487844FBF7C8FF002801D0A1
:10555000002010BD0248784410BD00000A1400006D
:105560000214000010B500290AD00878002807D0DE
:1055700005487844FBF7B2FF002801D0002010BD99
:105580000248784410BD0000FA130000F213000036
:105590000808A0F500114FEA3101704743004FEAB7
:1055A000D30C4FEA3C0C43401FBF40070CF1605145
:1055B00013F0FE4F70471CF0006F03D100200CF079
:1055C000004170470CF0004343EA507010B540EAC8
:1055D000CC0000F00EF800BF000000924FEA00017E
:1055E000FFF7D6BF4FF000414FF00000A1F50021BA
:1055F00070470EF1020E2EF0030E5EF8044B2442AB
:1056000004D44FEA4102B2F17F4F11D84FEA400370
:10561000B3F17F4F0CD80ED14FEAD07CB2F17F4F5F
:105620000CEB4C0C0CF1020C08BF4CEBD17C04E0F1
:105630004FF0080C01E04FEAD17C0CEB4C0324FA4C
:1056400003F404F00704B4F1040C06D20EEB840C4E
:10565000BDE810404CF0010C6047DFE80CF0070893
:1056600002024FF00040A0F5800010BD0846420045
:1056700018BFD2F1807288BF00F0004010BD4FF01B
:105680004070E1EE100A7047FBF75DBA01000200BE
:105690000400060008000A000C0010002000400072
:1056A0008000000101010103070100000804020459
:1056B00008010101000000000000000001020304D5
:1056C00006070809000000000102030400000000B2
:1056D00000000000000000000000000000000000CA
:1056E00000000000000000000000000000000000BA
:1056F0000000000000000000000000000000800129
:105700008001800180018001800180018001800191
:105710008001800180018001000000008001800183
:105720000000000000000000000000000000000079
:10573000CC00CC00CC00CC00CC00CC0000000000A1
:105740000000000000000000000000000000000059
:105750000000000000000000000000000000000049
:105760000000000000000000600C600C600C3006BF
:105770003006FE1FFE1F300638071803FE1FFE1FEF
:10578000180318038C018C018C01000000008000BC
:10579000E003F80F9C0E8C1C8C188C009800F8010C
:1057A000E007800E801C8C188C189C18B80CF00F29
:1057B000E003800080000000000000000000000006
:1057C00000000E181B0C110C110611061103110319
:1057D0009B018E01C038C06C60446044304430444A
:1057E0001844186C0C380000000000000000E001B4
:1057F000F0033807180618063003F001F000F8002F
:105800009C310E33061E061C061C063FFC73F0215D
:105810000000000000000000000000000000000088
:105820000C000C000C000C000C000C000000000030
:105830000000000000000000000000000000000068
:105840000000000000000000000000000000000256
:1058500000038001C000C000600060003000300024
:105860003000300030003000300030006000600058
:10587000C000C00080010003000200000000200002
:105880006000C000800180010003000300060006E4
:1058900000060006000600060006000600030003DE
:1058A00080018001C00060002000000000000000B6
:1058B0000000000000000000C000C000D806F8078B
:1058C000E001300338070000000000000000000085
:1058D00000000000000000000000000000000000C8
:1058E00000000000000000008001800180018001B4
:1058F0008001FC3FFC3F800180018001800180012C
:105900000000000000000000000000000000000097
:105910000000000000000000000000000000000087
:1059200000000000000000000000000000008001F6
:105930008001000100018000000000000000000064
:105940000000000000000000000000000000000057
:1059500000000000E007E007000000000000000079
:105960000000000000000000000000000000000037
:105970000000000000000000000000000000000027
:105980000000000000000000000000000000C00057
:10599000C000000000000000000000000000000C3B
:1059A000000C00060006000600030003000380034D
:1059B000800180018001C000C000C0006000600064
:1059C0000000000000000000000000000000E003F4
:1059D000F007380E180C0C180C180C180C180C18B2
:1059E0000C180C180C180C18180C380EF007E003E3
:1059F00000000000000000000000000000000001A6
:105A00008001C001F00198018801800180018001BE
:105A1000800180018001800180018001800180017E
:105A20000000000000000000000000000000E00393
:105A3000F80F180C0C180C1800180018000C0006B1
:105A400000038001C000600030001800FC1FFC1F34
:105A50000000000000000000000000000000E00165
:105A6000F807180E0C0C0C0C000C0006C003C00745
:105A7000000C001800180C180C18180CF807E0039C
:105A80000000000000000000000000000000000C0A
:105A9000000E000F000F800DC00C600C600C300C6D
:105AA000180C0C0CFC3FFC3F000C000C000C000C14
:105AB0000000000000000000000000000000F80FDF
:105AC000F80F180018000C00EC03FC071C0E001C5B
:105AD0000018001800180C181C0C180EF807E0032A
